:02000000A12B32
:10000800FF00030E8301BB000A08BA008A010B1D1A
:100018009128F8308100B80A0319B90A3908013A59
:10002800031D18285E303806031D4428BC01BD0195
:1000380087238E2270088312AE007108AF006430E7
:10004800F4000030F500BA220530F4000030F50065
:10005800BA22FD30F4000B30F5009D227008A9008B
:100068007108AA007108003C031D3C287008143C64
:10007800031844280230BC000030BD000423442883
:100088003908023A031D4A28BC303806031D642883
:10009800202300303702031D5B2800303602031D81
:1000A8005B2800303502031D5B2832303402031808
:1000B800642806170130BC000030BD000423642802
:1000C8003908043A031D6A281A303806031D8F2898
:1000D800B801B9010130BC000030BD0087238E2271
:1000E80070088312AB007108AC000530F4000030D2
:1000F800F500BA22FF30F4000330F5009D227008A5
:10010800AD007008003C03188F280330BC00003095
:10011800BD0004238F28FB308B050C1D9528FB3070
:100128008C050C1C9C28A30A0319A40AFE308C0514
:100138008B1CA028FD308B053A088A003B0E8300F3
:06014800FF0E7F0E09000E
:10014E0083120313FB01FA01F901F801A001730DEB
:10015E00F80D7408F8027508031C750FF90276087D
:10016E00031C760FFA027708031C770FFB020001BF
:10017E00031C0130A002F30D0730FC00730DF80DC7
:10018E00F90DFA0DFB0DA00D7408731CE028F80292
:10019E007508031C750FF9027608031C760FFA0218
:1001AE007708031C770FFB020001031C0130A0022D
:1001BE00F128F80775080318750FF9077608031864
:1001CE00760FFA0777080318770FFB07000103185D
:1001DE000130A007F30DFC0BC528720DF80DF90DBB
:1001EE00FA0DFB0DA00D7408731C0F29F80275088B
:1001FE00031C750FF9027608031C760FFA027708B6
:10020E00031C770FFB020001031C0130A002202902
:10021E00F80775080318750FF90776080318760F97
:10022E00FA0777080318770FFB0700010318013050
:10023E00A007F20D0730FC00720DF80DF90DFA0D46
:10024E00FB0DA00D7408721C3E29F8027508031CE4
:10025E00750FF9027608031C760FFA027708031C55
:10026E00770FFB020001031C0130A0024F29F80793
:10027E0075080318750FF90776080318760FFA0735
:10028E0077080318770FFB07000103180130A0074A
:10029E00F20DFC0B2329710DF80DF90DFA0DFB0D66
:1002AE00A00D7408721C6D29F8027508031C750FD9
:1002BE00F9027608031C760FFA027708031C770FF3
:1002CE00FB020001031C0130A0027E29F80775080D
:1002DE000318750FF90776080318760FFA077708D3
:1002EE000318770FFB07000103180130A007F10D6B
:1002FE000730FC00710DF80DF90DFA0DFB0DA00D78
:10030E007408711C9C29F8027508031C750FF902FC
:10031E007608031C760FFA027708031C770FFB0290
:10032E000001031C0130A002AD29F807750803185F
:10033E00750FF90776080318760FFA077708031872
:10034E00770FFB07000103180130A007F10DFC0B1E
:10035E008129700DF80DF90DFA0DFB0DA00D740825
:10036E00711CCB29F8027508031C750FF90276086B
:10037E00031C760FFA027708031C770FFB020001AD
:10038E00031C0130A002DC29F80775080318750F4D
:10039E00F90776080318760FFA0777080318770F10
:1003AE00FB07000103180130A007F00D0730FC0019
:1003BE00700DF80DF90DFA0DFB0DA00D7408701CE3
:1003CE00FA29F8027508031C750FF9027608031C4A
:1003DE00760FFA027708031C770FFB020001031C4D
:1003EE000130A0020B2AF80775080318750FF907DC
:1003FE0076080318760FFA0777080318770FFB07AE
:10040E00000103180130A007F00DFC0BDF29701856
:10041E001E2A7408F80775080318750FF907760871
:10042E000318760FFA0777080318770FFB070800F3
:10043E00831203132230FC00F801F901FA01FB01CB
:10044E00FC030319552A0310FB0CFA0CF90CF80CDB
:10045E00F30CF20CF10CF00C031C272AFC0303190D
:10046E00472A7408F80775080318750FF9077608F8
:10047E000318760FFA0777080318770FFB072B2A56
:10048E007408F80775080318750FF907760803182E
:0E049E00760FFA0777080318770FFB070800A0
:1004AC0083120313C001C101C001C1013F08410205
:1004BC00031D622A3E08400203186A2A000000004D
:0A04CC00C00A0319C10A5C2A0800E7
:1004D60083120313C001C101C201C301C001C101DE
:1004E6003F084102031D792A3E08400203188D2A5F
:1004F600C201C30100304302031D832A9B3042021E
:100506000318892AC20A0319C30A7D2AC00A0319D5
:06051600C10A732A08006F
:10051C00831203131F151F1D942A912A1E08F10024
:0E052C00F00183161E08F0040030F1040800F0
:10053A0083120313F801F9011030FC00710DF80D54
:10054A00F90D7408F8027508031C750FF9020318EF
:10055A00B52A7408F80775080318750FF907031008
:0A056A00F00DF10DFC0BA32A0800B0
:1005740083120313FB01FA01F9018030F800F10C36
:10058400F00C031CCE2A7408F90775080318750FBC
:10059400FA070318FB0A0310F01FD62A7408FA0797
:1005A40075080318750FFB07FB0CFA0CF90CF80C13
:1005B400031CC12A7B08F3007A08F2007908F100D1
:0605C4007808F0000800B9
:1005CA0083120313A301A401A501A601A701A8018F
:1005DA00B001B101B201B301B401B501B601B7016D
:1005EA008F018E0102308316860083128601C03085
:0E05FA008B0483160C14183083129000080036
:10060800831203133D08003C031D0C2B3C08003CDF
:1006180003181F2B8717E830BE000330BF006B227A
:100628008701E830BE000330BF006B220130BC02F6
:08063800031CBD03042B0800A4
:1006400083120313A301A4018F018E0104308600DD
:100650000A30BE000030BF00562286018618312BBA
:100660002E2B19309000861C362B332B183090001F
:100670000F08F100F0010E087004F8007108F9008D
:100680000030F9042408F7002308F600F401F5010E
:100690007808F0007908F100F201F3017408F0071E
:1006A00075080318750FF10776080318760FF2071F
:1006B00077080318770FF3077008A5007108A600E4
:1006C0007208A7007308A8007008B0007108B10094
:1006D0007208B2007308B3002230F400F501F6018D
:1006E000F7011F22E830F4000330F500F601F701AE
:1006F000A7207008B4007108B5007208B60073082E
:0E070000B700B70CB60CB50CB40CB71308005C
:10070E00831203133C08F0003D08F100F00DF10DCB
:10071E007010F00DF10D7010F00DF10D7010CE3057
:10072E0083169F004130700483129F003C0A83168B
:04073E00850008002A
:10074200831603138801831288018316870183129B
:100752008701063083169F008501F83083128100DD
:10076200B801B9019701873083168100F0308B0000
:06077200E522BA2BBB2BAF
:02400E004A2F37
:00000001FF
